:10000000282000201501000011010000110100004E
:1000100000000000000000000000000000000000E0
:1000200000000000000000000000000011010000BE
:10003000000000000000000011010000110100009C
:100040001101000011010000110100001101000068
:100050001101000011010000110100001101000058
:100060001101000011010000110100001101000048
:100070001101000011010000110100001101000038
:100080001101000011010000110100001101000028
:100090001101000011010000110100001101000018
:1000A0001101000010B5064C2378002B07D1054B39
:1000B000002B02D0044800E000BF0123237010BDD4
:1000C0000000002000000000D0060000084B10B522
:1000D000002B03D00749084800E000BF0748036829
:1000E000002B00D110BD064B002BFBD09847F9E741
:1000F0000000000004000020D0060000D006000030
:100100000000000010B5014B984710BD39020000F7
:10011000FEE7000010B51A4A1A4B9A4211D01A0095
:10012000194B9A420DD2194A03339B1A9B0801338B
:100130009B000022134812498C58845004329A4282
:10014000FAD1134A134B9A420AD2D34311495B188E
:1001500003218B4304339B18002102C29342FCD13C
:100160000D4AFF210D4B8B4393600D4A53687F3935
:100170000B4353600B4B98470B4B9847FEE7C04629
:10018000D006000000000020000000200400002035
:10019000000000202800002000ED00E0000000002A
:1001A000004000410D060000CD05000030B50E4BAB
:1001B0005822995C0125A94301242143C9B29954CD
:1001C0003C20195C493A91430D3A11431954592185
:1001D0005A5CAA432243D2B25A541A5C4A390A40A2
:1001E00011310A431A5430BD00440041044A136AD5
:1001F00020210B431362034A034B5A807047C046C9
:100200000004004010400000000C004010B5054BF9
:100210009847002204490548054B9847054B9847E5
:1002200010BDC046ED010000001400421C0000207B
:1002300065030000AD01000010B5024B9847024B6A
:10024000984710BD110400000D02000070B50600B3
:100250000C00150000280DD00800431E9841C0B2C4
:1002600034220549054B984733682A0021003000A5
:10027000984770BD0020F3E7540600000904000011
:10028000F8B5CE46474680B504000F0090460028DA
:1002900026D0002926D01000431E9841F122124991
:1002A000124B98470834124D2000A8470028FBD075
:1002B0000026104B99460E4DB95D2000C84720001E
:1002C000A8470028FBD001364645F5D30A4D20004B
:1002D000A8470028FBD030000CBC90469946F8BDDA
:1002E0000020DBE70020D9E76806000009040000D1
:1002F000570500004705000061050000F8B5CE462F
:10030000474680B504000F00904600281DD0002904
:100310001DD01000431E9841862252000D490E4BFD
:100320009847002608340D4D0D4B99462000A847EC
:100330000028FBD02000C847B85501364645F5D304
:1003400030000CBC90469946F8BD0020E4E7002040
:10035000E2E7C04668060000090400006B050000E3
:100360004F05000070B505000C00002813D00800F0
:10037000431E9841C0B234220849094B98472800CF
:1003800008302100074B9847002803D1064B6B60CB
:10039000064B2B6070BD0020EDE7C04668060000EC
:1003A0000904000009050000FD02000081020000B0
:1003B00010B50400431E9841C0B253220449054BB6
:1003C000984720000830044B9847002010BDC046D5
:1003D00068060000090400003505000070B504003F
:1003E0000D0000280AD00800431E9841C0B26922BF
:1003F0000349044B98472C60002070BD0020F6E7AD
:100400006806000009040000002800D100BE704703
:1004100010B5064B5A685A60054B9847054B9847EC
:10042000054B9847FF20054B984710BD0040004101
:100430006104000075050000BD05000041040000D6
:10044000C3070AD5054B802252009A6083225202CC
:100450005A601A005378DB09FCD17047000C004049
:10046000064B1A7AD2B21A725A7AD2B25A729A7A5F
:10047000D2B29A72DA7AD2B2DA72704700040040CD
:1004800010B504001A4BC3189B0ADBB2032B04D02F
:10049000184A19490020194B9847238ADB0BFCD1D5
:1004A000238ADB0BFCD123689B0707D5002323603D
:1004B000238ADB0BFCD1238ADB0BFCD101232360D5
:1004C000238ADB0BFCD1238ADB0BFCD10C4B236092
:1004D000238ADB0BFCD1C0239B026360238ADB0BE6
:1004E000FCD1084B638100232372002010BDC0465D
:1004F00000F8FFBD2A020000840600000904000085
:1005000004003140ADD8FFFF70B505000C00431E5C
:100510009841C0B2A1220449044B98472C602000A6
:10052000034B984770BDC0468406000009040000D4
:10053000810400000268136802210B431360138AD0
:10054000DB0BFCD17047036889B2198370470368DD
:10055000188BC0B270470368987B0123184070471E
:100560000368987B8007C00F70470368987B40073B
:10057000C00F70470E4B1A6A196A0E480240890F65
:1005800089070D4801430A431A629A6902210A4306
:100590009A611A7F1D310A401A7719000822CB6828
:1005A0001A42FCD0024A136A80210B43136270473F
:1005B000000800400000FF0F02030000024A936998
:1005C00002218B43936170470008004030B583B02F
:1005D000084B9847084C01A92000084B9847200079
:1005E000074B9847074D084C0E2229000198A04759
:1005F000FAE7C046050100001C000020DD030000F2
:10060000B1030000A00600004D02000070B50026F6
:100610000C4D0D4C641BA410A64209D1002600F01D
:1006200047F80A4D0A4C641BA410A64205D170BDC0
:10063000B300EB5898470136EEE7B300EB58984704
:100640000136F2E7BC060000BC060000BC06000054
:10065000C00600002E2E2F68616C2F7372632F6806
:10066000616C5F696F2E63002E2E2F68616C2F7393
:1006700072632F68616C5F75736172745F73796EFA
:10068000632E63002E2E2F68706C2F736572636F5C
:100690006D2F68706C5F736572636F6D2E63000001
:1006A00048656C6C6F20574F524C53210A00000074
:1006B000F8B5C046F8BC08BC9E467047CD000000A7
:1006C000F8B5C046F8BC08BC9E467047A5000000BF
:00000001FF
